:020000040800F2
:10000000D80700209D010008C53F0008212F0008E7
:10001000C13F0008A52B0008A14300080000000014
:10002000000000000000000000000000AF01000818
:100030006D2E000800000000B3010008B5010008A3
:10004000B7010008B7010008B7010008B7010008B0
:10005000B7010008B70100089B2E0008B70100088F
:10006000B92E0008D12E0008092F0008B70100089A
:10007000A92B0008B7010008E52B0008B70100080C
:10008000052C0008B7010008B7010008B7010008F7
:10009000B7010008B7010008B7010008B701000860
:1000A000B7010008B7010008B7010008B701000850
:1000B00051410008CD410008B7010008B701000810
:1000C000B7010008B7010008B7010008B701000830
:1000D000B7010008B7010008B7010008B701000820
:1000E000B7010008B7010008B7010008B701000810
:1000F000B7010008B7010008B7010008B701000800
:10010000B7010008B7010008B7010008B7010008EF
:10011000B7010008B7010008B7010008B7010008DF
:10012000B7010008B7010008B7010008B7010008CF
:10013000B7010008B7010008B7010008B7010008BF
:10014000B7010008B7010008B7010008B7010008AF
:10015000052E0008B70100084D2E0008B701000861
:10016000B7010008B7010008B7010008B70100088F
:10017000B7010008B7010008B7010008B70100087F
:10018000B7010008B7010008DFF80CD002F070FAE0
:1001900000480047FD560008D80700200648804761
:1001A00006480047FEE7FEE7FEE7FEE7FEE7FEE75C
:1001B000FEE7FEE7FEE7FEE7E940000889010008E8
:1001C00032490143324A1160704770B50021002363
:1001D0000F22C4781CB32E4C246804F4E064C4F5E8
:1001E000E064C4F30721C1F10404E3B20A41447896
:1001F0009C40E1B28478144021430C07210E254C29
:1002000005786155047804F01F050124AC40057899
:100210006D11AD0005F1E025C5F8004109E0047855
:1002200004F01F050124AC401B4D0678761145F8FB
:10023000264070BD194A0A400243154B1B1F1A6025
:10024000704739B1124A121D12680243104B1B1D30
:100250001A6006E00E4A121D126882430C4B1B1DE9
:100260001A607047042808D14FF0E021096941F075
:1002700004014FF0E022116107E04FF0E02109692D
:1002800021F004014FF0E022116170470000FA05EF
:100290000CED00E000E400E080E100E080FFFF1FE3
:1002A00010B50446FE48844208D10121084601F0F9
:1002B0007BF80021012001F077F89DE0B4F1804F38
:1002C00008D10121084601F05EF80021012001F06B
:1002D0005AF891E0F348844208D10121022001F04C
:1002E00052F80021022001F04EF885E0EE488442E9
:1002F00008D10121042001F046F80021042001F07A
:1003000042F879E0E948844208D10121082001F04F
:100310003AF80021082001F036F86DE0E448844204
:1003200008D10121102001F02EF80021102001F049
:100330002AF861E0DF48844208D10121202001F041
:1003400022F80021202001F01EF855E0DA4884420E
:1003500008D10121022001F027F80021022001F03C
:1003600023F849E0D548844209D10121080401F06D
:100370001BF800214FF4803001F016F83CE0D04823
:10038000844209D10121480401F00EF800214FF404
:10039000003001F009F82FE0CA48844209D1012158
:1003A000880401F001F800214FF4802000F0FCFFE8
:1003B00022E0C548844208D10121402000F0E3FF3B
:1003C0000021402000F0DFFF16E0C048844208D141
:1003D0000121802000F0D7FF0021802000F0D3FF12
:1003E0000AE0BB48844207D10121801500F0CBFF11
:1003F0000021A01500F0C7FF10BD00220288A84B05
:1004000098420ED0AC4B98420BD0B0F1804F08D040
:10041000A44B984205D0A44B984202D0A34B9842DB
:1004200004D14FF68F731A404B881A43A04B984261
:1004300007D0A04B984204D04FF6FF431A400B89D7
:100440001A4302804B68C3620B880385944B984221
:1004500002D0994B984201D18B7A03860123838283
:1004600070474FF0FF3141600021018001814180E0
:10047000817270470185828270470A460021018897
:100480004FF68F73194011430180704741627047E6
:10049000C16270470146486A70470146088D70473F
:1004A00021B1028842F00202028004E002884FF685
:1004B000FD731A400280704721B1028842F00402A5
:1004C000028004E002884FF6FB731A4002807047F6
:1004D00021B1028842F08002028004E002884FF6D7
:1004E0007F731A400280704702884FF6F7731A40F4
:1004F000028002880A430280704702884FF6FF4359
:100500001A40028002880A430280704721B10288A3
:1005100042F00102028004E002884FF6FE731A40A6
:100520000280704770B5002400220023058C4FF62E
:10053000FE7635400584028C8388048B4FF68F75D8
:100540002C40B51E2C400D882C43751E2A408D89E9
:100550002A434D882A43524DA84202D0564DA84204
:1005600013D14FF6F7752A40CD892A434FF6FB7514
:100570002A408D882A434FF6FF652B404FF6FF55E2
:100580002B400D8A2B434D8A2B43838004838D6837
:100590004563028470BD70B5002400220023058CE1
:1005A0004FF6EF7635400584028C8388048B48F63D
:1005B000FF752C404FF6FF452C400D884FF6FF7617
:1005C00006EA05252C434FF6DF752A408D8906EA99
:1005D00005152A434D8806EA05152A43304DA842E1
:1005E00002D0354DA8421DD14FF67F752A40CD89E6
:1005F0004FF6FF7606EA05152A434FF6BF752A40E7
:100600008D8806EA05152A434FF6FF352B404FF239
:10061000FF752B400D8A06EA85052B434D8A06EAB5
:1006200085052B43838004838D688563028470BDB8
:1006300070B5002400220023058C4FF6FF6635407C
:100640000584028C8388848B4FF68F752C404FF67F
:10065000FC752C400D882C434FF6FF552A408D89A0
:100660004FF6FF7606EA05252A434D8806EA05255A
:100670002A430B4DA84202D00F4DA84238D14FF269
:10068000FF752A40CD894FF6FF7606EA05252A43F5
:100690004FF6FF352A408D8806EA05252A4319E0E2
:1006A000000001400004004000080040000C004031
:1006B00000100040001400400004014000400140D0
:1006C000004401400048014000180040001C004068
:1006D000002000404EF6FF752B404DF6FF752B4075
:1006E0000D8A06EA05152B434D8A06EA05152B43AC
:1006F000838084838D68C563028470BD70B50022D9
:1007000000230024058C4EF6FF7635400584038CCB
:100710008488828B48F6FF752A404FF6FF452A40B1
:100720000D884FF6FF7606EA05252A434DF6FF753C
:100730002B408D8906EA05352B434D8806EA0535A1
:100740002B43FE4DA84202D0FD4DA84208D14BF6E6
:10075000FF752C400D8A4FF6FF7606EA85152C436F
:10076000848082838D680564038470BD00210180CC
:100770004180818081608181C18101824182704795
:1007800070B50346002000241846183001258D401E
:10079000ACB21D8CA5431D8409B108290AD100EB18
:1007A000610005684FF68F76354005600568154392
:1007B00005600FE00D1FC5F34E052844056848F697
:1007C000FF763540056005684FF6FF7606EA02269B
:1007D0003543056070BD4163704781637047C163F5
:1007E0007047016470470A460021018B4FF68F73F2
:1007F00019401143018370470A460021018B48F6D6
:10080000FF7319404FF6FF7303EA02231943018374
:1008100070470A460021818B4FF68F7319401143B0
:10082000818370470A460021818B48F6FF73194087
:100830004FF6FF7303EA02231943818370470A4688
:100840000021018B4FF6F773194011430183704764
:100850000A460021018B4FF2FF7319404FF6FF73D8
:1008600003EA02231943018370470A460021818B62
:100870004FF6F77319401143818370470A460021F0
:10088000818B4FF2FF7319404FF6FF7303EA022387
:100890001943818370470A460021018B4FF6FB7391
:1008A00019401143018370470A460021018B4FF61E
:1008B000FF3319404FF6FF7303EA02231943018304
:1008C00070470A460021818B4FF6FB731940114394
:1008D000818370470A460021818B4FF6FF33194010
:1008E0004FF6FF7303EA02231943818370470A46D8
:1008F0000021018B4FF67F7319401143018370472C
:100900000A460021018BC1F30E014FF6FF7303EA83
:1009100002231943018370470A460021818B4FF659
:100920007F7319401143818370470A460021818BF0
:10093000C1F30E014FF6FF7303EA022319438183CB
:1009400070470A460021018C4FF6FD731940114390
:10095000018470470A460021018C4FF6F773194055
:100960001143018470470A460021018C4FF6DF7362
:1009700019404FF6FF7303EA0213194301847047CD
:100980000A460021018C4FF67F7319404FF6FF7322
:1009900003EA02131943018470470A460021018CBF
:1009A0004FF6FF5319404FF6FF7303EA0223194332
:1009B000018470470A460021018C4FF2FF731940F1
:1009C0004FF6FF7303EA02231943018470470A4676
:1009D0000021018C4DF6FF7319404FF6FF7303EAB7
:1009E000023319430184704730B5002301248C4041
:1009F000A3B2048C9C430484048C02FA01F5ADB2CA
:100A00002C43048430BD30B5002304248C40A3B2B1
:100A1000048C9C430484048C02FA01F5ADB22C438F
:100A2000048430BD828B4FF2FF331A408283828B65
:100A30004FF6FF7303EA01231A4382837047F0B530
:100A40000C461546002100220026078C4EF6FF7C3E
:100A500007EA0C070784818B028C4FF6FF7707EAC1
:100A6000043640F6FF4739404FF6FF7707EA05277F
:100A700039434FF6FF7707EA0337394345F6FF77E7
:100A80003A4046F480573A4381830284F0BD828B1A
:100A90004FF6F3731A408283828B0A438283704736
:100AA000F0B50C461546002100220026078C4FF6B3
:100AB000FF6C07EA0C070784818B028C4FF6FF77E7
:100AC00007EA04264FF60C7739404FF6FF7707EA1E
:100AD00003172F4339434FF2FF573A4046F48077CC
:100AE0003A4381830284F0BD028B4FF2FF331A40F8
:100AF0000283028B4FF6FF7303EA01231A4302833A
:100B00007047F0B50C461546002100220026078CE0
:100B10004FF6EF7C07EA0C070784018B028C4FF637
:100B2000FF7707EA041640F6FF4739404FF6FF7794
:100B300007EA033739434FF6FF7703E0000001402F
:100B40000004014007EA052739434FF65F773A4032
:100B500046F010073A4301830284F0BD028B4FF642
:100B6000F3731A400283028B0A4302837047F0B585
:100B70000C46154600210022068C4FF6FE773E40BB
:100B80000684018B028C4FF60C7631407E1C06EAFF
:100B900003162E4331434FF6F576324044F00106FA
:100BA000324301830284F0BD70B505460C462088AF
:100BB00050B92389A28861882846FFF7D8FFE188C9
:100BC0002846FFF7CBFF25E0208804280AD1238997
:100BD000A28861882846FFF794FFE1882846FFF73E
:100BE00083FF17E0208808280AD12389A28861881A
:100BF0002846FFF755FFE1882846FFF748FF09E040
:100C00002389A28861882846FFF719FFE1882846D2
:100C1000FFF708FF70BD0021018041800121818024
:100C20000021C180018170472DE9F04105460C4645
:100C300000260127608808B9022600E00026A08867
:100C4000012801D1022700E001272088A0B92389CB
:100C5000A28861882846FFF78AFFE1882846FFF7C7
:100C60007DFF23893A4631462846FFF74AFFE1884F
:100C70002846FFF739FF13E02389A28861882846B8
:100C8000FFF73FFFE1882846FFF72EFF23893A460A
:100C900031462846FFF76BFFE1882846FFF75EFFE5
:100CA000BDE8F0810146486B70470146886B70478C
:100CB0000146C86B70470146086C70470A884B882C
:100CC0001A438B881A43CB881A430B891A434B89E2
:100CD0001A438B891A43A0F84420704700210180F1
:100CE00041808180C180018141818181704731B122
:100CF000B0F8442042F40042A0F8442005E0B0F8E7
:100D00004420C2F30E02A0F84420704721B182882B
:100D100042F00402828004E082884FF6FB731A409E
:100D20008280704721B1828842F00102828004E013
:100D300082884FF6FE731A40828070471AB1838909
:100D40000B43838102E083898B43838170478182D7
:100D5000704702460020138A0B400BB1012000E0CF
:100D600000207047CA430282704730B50246002017
:100D700000230024158A05EA0103958905EA010488
:100D800013B10CB1012000E0002030BDCA43028243
:100D9000704741EA0203A0F8483070471AB18389CE
:100DA0000B43838102E083898B438381704721B1A8
:100DB000828842F00802828004E082884FF6F7734E
:100DC0001A408280704701894FF6F8721140018104
:100DD00070470A46002101894FF68F73194011436D
:100DE0000181704730B504460D4629462046FFF77D
:100DF000F0FF208940F00700208130BD2DE9F0414F
:100E000004460D4616461F46602D06D13B4601227C
:100E100031462046FFF775FE05E03B46012231468C
:100E20002046FFF7A4FE29462046FFF7D2FF20897F
:100E300040F007002081BDE8F08130B50C4600216C
:100E40000189C9B24FF6FF7505EA0325154325430D
:100E50002943018130BD2DE9F04105460E46174674
:100E60009846002443463A4631462846FFF7E5FFB8
:100E70002C894FF6F870044044F007044FF68F7049
:100E8000044044F070042C81BDE8F081F0B50446C4
:100E90000D4616461F463B46324629462046FFF77A
:100EA000CCFF208940F480402081F0BD82884FF63D
:100EB0008F731A40828082880A4382807047028939
:100EC0004FF6F8731A40028102890A430281704783
:100ED00002894FF67F731A40028102890A43028118
:100EE0007047F0B50C4615461E460021002200232F
:100EF0000189028B038C4FF6F877394021434FF676
:100F0000FC473A4040F201173A434FF6DD773B4049
:100F10004FF6FF7707EA06172F433B430181028311
:100F20000384F0BD21B1828842F08002828004E017
:100F300082884FF67F731A4082807047A0F8501065
:100F400070470000FA48006840F00100F849086066
:100F50000020F74908310860F5480068F549084065
:100F6000F3490860F448091D0860081F006820F470
:100F70008020091F08600020ED490C31086070478F
:100F80000021EB4A921C117011460870704710B591
:100F900001460022002300204A11012A02D1E44C1C
:100FA000236808E0022A03D1E14C7034236802E090
:100FB000DF4C7434236801F01F02012494401C406C
:100FC0000CB1012000E0002010BD38B500200090D9
:100FD0000024002500BF3120FFF7D9FF0546009807
:100FE000401C00900098B0F5A06F01D0002DF2D009
:100FF0003120FFF7CCFF08B1012400E00024204697
:1010000038BD01460020CA4A106820F0F80040EAC6
:10101000C10010607047C949086070470021C44A88
:10102000703211701170012802D004280AD104E036
:101030000121BF4A7032117005E00521BC4A7032AF
:10104000117000E000BF00BF7047BD4908607047E5
:1010500070B5049C41EA82150126C6EB530645EAA9
:101060000645054345EA0465B14E361D356070BD41
:10107000B24908667047820142EA0172AC4B843380
:101080001A607047AD4988667047AC49C8647047BC
:1010900002460020A64B0833186820F0EC6042EAB4
:1010A00001031843A24B0833186070470246002022
:1010B0009F4B0833186820F0784042EA0103184338
:1010C0009B4B08331860704701460020984A08324D
:1010D000106820F0030008431060704794480830FF
:1010E000006800F00C00704701460020904A08326A
:1010F000106820F0F000084310607047014600209F
:101100008B4A0832106820F4E050084310607047A2
:1011100001460020864A0832106820F4604040EA08
:10112000C10010607047F0B50021002200240225A4
:10113000002602237E4F08373F6807F00C0121B1DB
:10114000042905D0082937D105E07E4F076036E035
:101150007D4F076033E0764F3F1D3F68C7F38056F1
:10116000734F3F1D3F6807F03F036EB1764FB7FBEB
:10117000F3F7DFF8BCC10CF1040CDCF800C0CCF3D1
:10118000881C07FB0CF40CE06E4FB7FBF3F7DFF89D
:10119000A0C10CF1040CDCF800C0CCF3881C07FBE8
:1011A0000CF4634F3F1D3F68C7F301477F1C7D0070
:1011B000B4FBF5F7076002E0624F076000BF00BFB5
:1011C0005B4F08373F6807F0F00109095F4F7A5C11
:1011D0000768D7404760564F08373F6807F4E0512B
:1011E000890A5A4F7A5C4768D7408760504F083762
:1011F0003F6807F46041490B544F7A5C4768D74019
:10120000C760F0BD002100F44072B2F5407F0AD102
:10121000474A0832116821F4F8114D4A024011433F
:10122000434A08321160424A70321268C0F30B031D
:101230001A433F4B70331A60704741494439086084
:1012400070473F494039086070474249086070471D
:1012500039B1374A303212680243354B30331A60A5
:1012600006E0334A303212688243314B30331A6021
:10127000704739B12E4A3432126802432C4B343352
:101280001A6006E02A4A343212688243284B34330B
:101290001A60704739B1264A383212680243244B2B
:1012A00038331A6006E0224A383212688243204BF3
:1012B00038331A60704739B11D4A40321268024310
:1012C0001B4B40331A6006E0194A403212688243D1
:1012D000174B40331A60704739B1154A44321268CF
:1012E0000243134B44331A6006E0114A4432126839
:1012F00082430F4B44331A60704739B10C4A1032A5
:10130000126802430A4B10331A6006E0084A103292
:1013100012688243064B10331A607047E1B1044AE9
:10132000143212680243024B14331A6019E00000B1
:1013300000380240FFFFF6FE103000240000474254
:10134000800E47420024F40040787D01D400002044
:10135000FFFCFF0F5C0147425B4A126882435A4B15
:101360001A60704739B1584A121D12680243564B31
:101370001B1D1A6006E0544A121D12688243524B2C
:101380001B1D1A60704739B14F4A0C321268024374
:101390004D4B0C331A6006E04B4A0C321268824304
:1013A000494B0C331A60704739B1474A1032126802
:1013B0000243454B10331A6006E0434A103212686C
:1013C0008243414B10331A60704739B13E4A3C3278
:1013D000126802433C4B3C331A6006E03A4A3C3206
:1013E00012688243384B3C331A60704739B1364A31
:1013F000403212680243344B40331A6006E0324AEE
:10140000403212688243304B40331A60704739B122
:101410002D4A4432126802432B4B44331A6006E0D3
:10142000294A443212688243274B44331A6070477A
:1014300039B1254A4C3212680243234B4C331A60AF
:1014400006E0214A4C32126882431F4B4C331A602B
:10145000704739B11C4A5032126802431A4B50335C
:101460001A6006E0184A503212688243164B503315
:101470001A60704739B1144AD21F12780243124BD6
:10148000DB1F1A7006E0104AD21F127882430E4BFF
:10149000DB1F1A7070470C486030006840F08070A5
:1014A000094960310860704701460020064A083A41
:1014B00012680A400AB1012000E00020704702498A
:1014C000891F08707047000014380240002044490A
:1014D0000860091D0860091D0860091D0860414871
:1014E0003F4914310860704700213D498279002A44
:1014F0003AD00A46126803689A430B461A600A1DDE
:10150000126803689A430B1D1A60027911440A6835
:1015100003681A430A60324A0832126803689A4321
:101520002F4B08331A601A1D126803689A432C4B1C
:101530000C331A604279102A0ED11A1F1268036800
:101540001A43274B08331A601A1D126803681A439E
:10155000234B0C331A600DE02149427911440A688B
:1015600003681A430A6005E0027911440A680368B7
:101570009A430A6070470021016001710C2141719A
:101580000021817170471649103109680143144ADE
:1015900010321160704701460020114A143212685F
:1015A0000A400AB1012000E0002070470C491431C4
:1015B00008607047014600200022094B1B6803EABF
:1015C0000102074B14331B680B4013B10AB1012011
:1015D00000E00020704702491431086070470000A5
:1015E000003C0140FFFF7F0010B504468C48844258
:1015F00008D101210846FFF780FE00210120FFF7F6
:101600007CFE5EE08748844208D101210220FFF77A
:1016100074FE00210220FFF770FE52E082488442EF
:1016200008D101210420FFF768FE00210420FFF704
:1016300064FE46E07D48844208D101210820FFF77E
:101640005CFE00210820FFF758FE3AE0784884420B
:1016500008D101211020FFF750FE00211020FFF7D4
:101660004CFE2EE07348844208D101212020FFF770
:1016700044FE00212020FFF740FE22E06E48844215
:1016800008D101214020FFF738FE00214020FFF75C
:1016900034FE16E06948844208D101218020FFF71A
:1016A0002CFE00218020FFF728FE0AE064488442D7
:1016B00007D101218015FFF720FE0021A015FFF7BB
:1016C0001CFE10BDF0B50A4600210023002400BF17
:1016D0003DE0012505FA01F3156805EA03049C4283
:1016E00034D105684F000326BE40B5430560157927
:1016F0004E00B5400668354305601579012D02D0CE
:101700001579022D16D185684F000326BE40B543DA
:10171000856055794E00B5408668354385604568DB
:1017200001268E40B5434560456896798E40B6B235
:1017300035434560C5684F000326BE40B543C560CC
:10174000D5794E00B540C6683543C560491C10299F
:10175000BFD3F0BD4FF6FF710160002101714171EF
:101760008171C171704708B54FF480320092009AC0
:101770000A430092009AC261C161009AC261C269C3
:101780000092C269009208BD0246002013690B4016
:101790000BB1012000E0002070470146086980B2CB
:1017A00070470246002053690B400BB1012000E056
:1017B000002070470146486980B270470183704736
:1017C000418370470AB1018300E041837047416162
:1017D000704742694A4042617047F0B500230024D7
:1017E0004D07ED0E02FA05F3CE1000F1200555F875
:1017F00026504E07F70E0F26BE40B543CF1000F11E
:10180000200646F82750CE1000F1200555F8265046
:1018100045EA0304CE1000F1200545F82640F0BD4E
:10182000000002400004024000080240000C024098
:10183000001002400014024000180240001C024048
:1018400000200240016821F00101016000210160D7
:1018500041608160C160016121214161DB498842B1
:1018600004D13D21D94A103A91608CE0D749183112
:10187000884205D14FF47461D44A103A916082E0F5
:10188000D2493031884205D14FF47411CF4A103A11
:10189000916078E0CD494831884205D14FF07461BC
:1018A000CA4A103A91606EE0C8496031884204D15A
:1018B000C749C64A103AD16065E0C44978318842C8
:1018C00004D1C449C14A103AD1605CE0BF499031AB
:1018D000884204D1C049BD4A103AD16053E0BB49A7
:1018E000A831884205D14FF03D51B84A103AD16035
:1018F00049E0BA49884204D13D21B84A083A11600A
:1019000041E0B6491831884205D14FF47461B34AB9
:10191000083A116037E0B1493031884205D14FF4BF
:101920007411AE4A083A11602DE0AC494831884242
:1019300005D14FF07461A94A083A116023E0A74924
:101940006031884204D1A249A44A121F11601AE0F2
:10195000A2497831884204D19E49A04A121F1160E1
:1019600011E09E499031884204D19B499B4A121F45
:10197000116008E09949A831884204D14FF03D51E7
:10198000964A121F1160704710B500220268944BEE
:101990001A40CC680B6823434C6923438C6923436A
:1019A000CC6923430C6A23434C6A23438C6A234348
:1019B0004C6B23438C6B23431A430260426922F031
:1019C0000702D1E90B3423431A4342610B69436098
:1019D0004B6883608B68C36010BD0021016041606B
:1019E0008160C160016141618161C16101624162E7
:1019F0008162C162016341638163704721B1026802
:101A000042F00102026003E0026822F0010202607B
:101A1000704721B1026842F40042026003E00268AC
:101A200022F400420260704721B1026842F02002B5
:101A3000026003E0026822F0200202607047416009
:101A400070470146486880B2704722B1036843F48A
:101A50000023036003E0036823F4002303600161B3
:101A6000704721B1026842F48022026003E00268FC
:101A700022F48022026070470AB1016100E0C16077
:101A80007047014600200A6802F400220AB10120D2
:101A900000E000207047014600200A6802F00102C1
:101AA0000AB1012000E000207047014600204A6989
:101AB00002F03800704730B503460A460020002483
:101AC000464DAB4202D24149103901E04349103939
:101AD00002F000550DB14C6800E00C68414D2C40FF
:101AE00004EA02050DB1012000E0002030BD0246ED
:101AF0003A4B9A4202D23548103801E03748103844
:101B000001F000531BB1374B0B40C36002E0354B73
:101B10000B408360704710B501F080034BB122B1D8
:101B2000436943F08003436103E0436923F080038A
:101B3000436180290BD02AB1036801F01E042343BE
:101B4000036004E0036801F01E04A343036010BDBA
:101B500070B50246002000240025204EB24202D279
:101B60001A4B103B01E01D4B103B1F4E0E4036B18F
:101B70001E2606EAD124166806EA040502E0566924
:101B800006F0800501F000560EB15C6800E01C68AC
:101B9000144E344004EA010616B10DB1012000E0F4
:101BA000002070BD02460D4B9A4202D20748103801
:101BB00001E00A48103801F000531BB1094B0B40FB
:101BC000C36002E0074B0B40836070471060024027
:101BD0003D000020400F002000003D201064024026
:101BE0003F801CF07D0F7D0F3C0F3C0F10B504466D
:101BF000F748844208D101211020FFF7D5FB0021CE
:101C00001020FFF7D1FB3EE0F248844209D10121C8
:101C10004804FFF7B8FB00214FF40030FFF7B3FB97
:101C200031E0ED48844209D101218804FFF7ABFB84
:101C300000214FF48020FFF7A6FB24E0E748844210
:101C400009D10121C804FFF79EFB00214FF40020B9
:101C5000FFF799FB17E0E248844209D1012108050A
:101C6000FFF791FB00214FF48010FFF78CFB0AE097
:101C7000DC48844207D101212020FFF795FB002199
:101C80002020FFF791FB10BD2DE9FF4705460E46CA
:101C90000024A14600BFA046B08900B100BF2C8A35
:101CA00024F44054F08804432C82AC8941F20C6047
:101CB0008443B08831890843718908430443AC8167
:101CC000AC8A24F44074B0890443AC826846FFF7C0
:101CD0002AFABF48854202D0C248854202D1DDF8C7
:101CE0000C9001E0DDF80890A88900F4004040B1B4
:101CF00009EBC90000EB091031684900B0FBF1F7AE
:101D000007E009EBC90000EB091031688900B0FB5E
:101D1000F1F76420B7FBF0F004012009642101FB16
:101D20001078A88900F4004040B1322000EBC800D0
:101D3000B0FBF1F000F00700044308E0322000EBB4
:101D400008106421B0FBF1F000F00F0004432C8177
:101D5000BDE8FF874FF41651016000218180C180EA
:101D600001810C21418100218181704710B502461B
:101D70000020108A20F470600B884C8823438C88E4
:101D80002343CC8823431843108210BD00210180D7
:101D900041808180C180704721B1828942F4005224
:101DA000828104E082894DF6FF731A408281704778
:101DB000028B02F47F420283028B0A430283704744
:101DC00021B1828942F40042828103E08289C2F318
:101DD0000E028281704721B1828A42F400628282BF
:101DE00004E0828A4FF2FF731A4082827047C1F387
:101DF00008028280704701468888C0F30800704757
:101E0000028A4FF6F0731A400282028A0A43028263
:101E1000704721B1828942F00202828104E0828906
:101E20004FF6FD731A408281704782894FF2FF732B
:101E30001A40828182890A4382817047028A4FF662
:101E4000DF731A400282028A0A430282704721B17C
:101E5000028A42F48042028204E0028A4BF6FF7357
:101E60001A4002827047818941F0010181817047E7
:101E700021B1828A42F00802828204E0828A4FF60F
:101E8000F7731A4082827047028BD2B20283028BB0
:101E900042EA01220283704721B1828A42F0200285
:101EA000828204E0828A4FF6DF731A408282704792
:101EB00021B1828A42F01002828204E0828A4FF6C7
:101EC000EF731A4082827047828A4FF6FB731A4082
:101ED0008282828A0A438282704721B1828A42F0DA
:101EE0000202828204E0828A4FF6FD731A408282E7
:101EF00070471AB1838A0B43838202E0838A8B4343
:101F000083827047F0B50346002400260025002098
:101F100040F66A17B94200D100BF1846C1F3421417
:101F200001F01F06012707FA06F5012C01D10C303C
:101F300004E0022C01D1103000E014301AB107681F
:101F40002F43076002E00768AF430760F0BD024619
:101F50000020B1F5007F00D100BF13880B400BB10A
:101F6000012000E00020704701F40072B2F5007F0C
:101F700000D100BFCA430280704770B502460024FA
:101F800000230025002040F66A16B14200D100BFB0
:101F9000C1F3421501F01F03012606FA03F3012DD8
:101FA00002D19689334006E0022D02D1168A3340D1
:101FB00001E0968A33400C12012606FA04F41688D2
:101FC000344013B10CB1012000E0002070BD0000CE
:101FD000001001400044004000480040004C004018
:101FE000005000400014014010B50022002340F6CC
:101FF0006A14A14200D100BF0A1201249440A3B286
:10200000DC43048010BD2DE9FE4F804681EA0300C9
:10201000C00F0C46009021F0004123F00045B8EBC2
:102020000200A94105D24046214690461C460B4677
:10203000024623F00040104347D0270DC7F30A00A3
:10204000C3F30A510290401A019040286BDAC3F39F
:10205000130040F4801B0098924620B10023D2EB7D
:10206000030A63EB0B0B01985946C0F1400250463E
:1020700000F0C7F906460D4650465946019A00F051
:10208000CFF910EB08006141002487EA115284EA7D
:10209000E7731A4340D0009A62B3019A012A4FEACB
:1020A000075215DC001B61EB02014FF0004202EA0F
:1020B0000752CDE90042001C41F5801132462B4603
:1020C00000F006FA03B0BDE8F08F40462146F9E77C
:1020D000001B61EB0201001C41F5801300185B41FD
:1020E0002018A2F5001747EB030140EAD570B61996
:1020F0006D4111E06D084FEA360645EAC0754FEABA
:102100000752001B61EB0201001C41F580114908D8
:102110004FEA30000019514132462B4603B0BDE86A
:10212000F04F00F0C6B90098012240000023D0EB28
:10213000020263EBE073009821464FEAE074B8EBCB
:10214000000061EB0401E9E783F000435BE781F005
:10215000004158E72DE9FE4F81EA030404F00044F2
:1021600021F0004100944FF0000B23F0004350EAAF
:1021700001045ED052EA03045BD0C3F30A54C1F3F6
:102180000A552C44A4F2F3340194A0FB0254C1F389
:10219000130141F48011C3F3130343F4801301FBD3
:1021A000024400FB034E840A970A44EA815447EA3A
:1021B0008357A4FB076802958D0A05FB07854FEA44
:1021C000932C04FB0C542705029D4FEA065847EA5E
:1021D0001637B5EB08056EEB070C870E920E47EA33
:1021E000811742EA8312A7FB0201B6EB0B0164EBF5
:1021F00000042B0D43EA0C335E1844EB1C50DA4606
:102200005146E7FB0201C5F313044FEA0B3343EADF
:1022100014534FEA0432019C43EA0603A4F10C0470
:102220000294009CCDE900B400F052F903B0BDE87F
:10223000F08F00200146F9E72DE9F04D81EA030413
:1022400004F0004B21F0004514464FF0000A23F043
:10225000004150EA050220D054EA01021DD0C5F326
:102260000A570246C5F31303C1F31300C1F30A561C
:1022700040F4801543F48013A7EB0608101BD646E4
:1022800008F2FD3873EB050002D308F1010801E004
:1022900092185B41B8F1000F03DA00200146BDE857
:1022A000F08D00204FF48011064684460EE0171B87
:1022B00073EB050705D3121B63EB050306434CEADA
:1022C000010C49084FEA300092185B4150EA0107BF
:1022D000EDD152EA030012D082EA040083EA05013C
:1022E000084305D0101BAB4106D20122002306E0B3
:1022F00000224FF0004302E06FF0010253101AEB8E
:1023000006004CEB085110EB0A0041EB0B01BDE855
:10231000F04D00F0CEB800F0004230F000400AD09E
:10232000C10D01F56071C0F3160042EA0151C20807
:1023300040071143704700200146704701F00043F9
:1023400030B421F0004150EA010206D00A0DA2F596
:102350006072C1F31301002A02DC30BC0020704718
:10236000440F44EAC104C100E01830BC00EBC25085
:1023700000F068B830B50B46014600202022012449
:1023800009E021FA02F59D4205D303FA02F5491B43
:1023900004FA02F52844151EA2F10102F1DC30BD59
:1023A0002DE9F05F0546002092469B46884606468A
:1023B000814640241BE0284641464746224600F01D
:1023C00069F953465A46C01A914110D3114618462E
:1023D000224600F016F82D1A67EB01084F462246F8
:1023E0000120002100F00DF817EB00094E41201EDE
:1023F000A4F10104DFDC484631462A464346BDE8E5
:10240000F09F202A04DB203A00FA02F100207047F6
:102410009140C2F1200320FA03F319439040704722
:10242000202A06DBCB17203A41FA02F043EAE07398
:1024300006E041FA02F3D040C2F120029140084385
:10244000194670470029A8BF7047401C490008BFC3
:1024500020F00100704710B4B0FA80FC00FA0CF0D4
:1024600050EA010404BF10BC704749B1CCF120040C
:1024700021FA04F411FA0CF118BF01212143084399
:10248000A3EB0C01CB1D4FEA00614FEA102042BFC5
:10249000002010BC704700EBC35010440029A4BFBB
:1024A00010BC7047401C490008BF20F0010010BC60
:1024B000704710B5141E73F1000408DA401C41F196
:1024C000000192185B411A4301D120F0010010BDB8
:1024D0002DE9F04D92469B4611B1B1FA81F202E02E
:1024E000B0FA80F220329046FFF78BFF04460F4689
:1024F00040EA0A0041EA0B0153465A46084313D00A
:10250000114653EA010019D0C8F14002504600F0CC
:10251000C1F805460E46504659464246FFF771FF40
:10252000084305D0012004E020463946BDE8F08D7F
:102530000020054346EAE0762C4337430A986305BA
:10254000E40AA0EB08000022FD0A44EA47540A30DE
:1025500002D500200146E9E7010510196941DDE9CE
:10256000084500196941BDE8F04DA2E72DE9F04D9D
:1025700000231A461B1A8A4103DB00200146BDE8EE
:10258000F08DC1F30A52C1F3130141F480154FF0ED
:10259000000BD10702D100186D41521E00270446DE
:1025A00040F2FF11384601EB620A3E468046024681
:1025B00000204FF4801100F06DF8C2197141BB1872
:1025C00046EB0100B4EB030C75EB000C04D3E41AEA
:1025D00065EB000517460E46241908F101006D4110
:1025E00080463428E3DDF91946EB0600091BA841B3
:1025F00003D24FF0FF32134601E0002213461BEBDB
:10260000070046EB0A51BDE8F04DFFF752BFC1F39A
:102610000A52C1F3130140F2FF3341F480119A4290
:1026200002DA00200146704740F233439A42A2F298
:10263000334202DC524200F02DB8FFF7E2BE000048
:1026400030B5041E71F1000404DB4FF00044404239
:1026500064EB0101141E73F1000405DB1C464FF00E
:102660000043524263EB0403994208BF904230BDDD
:10267000064C074D06E0E06840F0010394E80700CF
:1026800098471034AC42F6D3FDF782FDF0580008AD
:1026900010590008202A04DB203A21FA02F0002118
:1026A000704721FA02F3D040C2F120029140084362
:1026B0001946704710B504469CB91648006838B9E9
:1026C0000120144908600A21134801F07DFC06E04E
:1026D0000020104908600A21104801F075FC002014
:1026E00010BD012C13D10B48006838B901200949ED
:1026F00008600A210A4801F067FC06E0002005494D
:1027000008600A21074801F05FFC0020E8E74FF06D
:10271000FF30E5E7600000200A0000201E000020D6
:1027200000000020140000202DE9F84F8146884663
:102730004FF0000A0024002600250027B8F1000F02
:1027400075DBB9F1010F3BD14FEA485040F25371AC
:1027500090FBF1F000EE100AB8EEC00A8DED000A11
:102760009DF800006F4908709DF8010048709DF8C1
:10277000020088709DF80300C870052400BF05E0C2
:102780006848805D68490855641C761C0A2CF7DB94
:102790000025002704E06448405D384487B26D1C82
:1027A000092DF8DB7842604948720A215E4801F041
:1027B0000BFC4FF0000A002400260025002736E01D
:1027C000B9F1020F33D14FEA485040F2537190FBF8
:1027D000F1F000EE100AB8EEC00A8DED000A9DF887
:1027E0000000504908709DF8010048709DF80200F3
:1027F00088709DF80300C8700524002605E049484C
:10280000805D4A490855641C761C0A2CF7DB0025BC
:1028100004E04648405D384487B26D1C092DF8DB62
:102820007842424948720A21404801F0CDFBB8F194
:10283000000F75DAB9F1010F3BD1C8F10000400576
:1028400040F2537190FBF1F000EE100AB8EEC00AAE
:102850008DED000A9DF80000324908709DF80100D6
:1028600048709DF802008870FF20C870052400267B
:1028700005E02C48805D2C490855641C761C0A2C08
:10288000F7DB0025002704E02748405D384487B285
:102890006D1C092DF8DB7842234948720A21224831
:1028A00001F092FB4FF0000A0024002600250027CB
:1028B00036E0B9F1020F33D1C8F10000400540F213
:1028C000537190FBF1F000EE100AB8EEC00A8DEDE6
:1028D000000A9DF80000134908709DF80100487037
:1028E0009DF802008870FF20C8700524002605E0CE
:1028F0000C48805D0D490855641C761C0A2CF7DBDA
:10290000002504E00948405D384487B26D1C092D5C
:10291000F8DB7842054948720A21044801F054FB6B
:10292000BDE8F88F280000202C0000203600002091
:1029300010B50948006838B90120074908600A2124
:10294000064801F041FB06E00020034908600A2127
:10295000034801F039FB10BD640000204000002056
:102960004A00002070B58EB005460020444908702A
:1029700044490870002403E0002001A90855641CA4
:10298000322CF9DB2878A52875D13D48007800283D
:1029900071D101203A4908703A480078401C394901
:1029A000087068785A2809D135480078012805D17F
:1029B00011203349087000203249087030480078EF
:1029C00011285BD100203049087011E0A81C2E4965
:1029D0000978405C01A92C4A12788854294800786B
:1029E000401C2849087028480078401C2649087077
:1029F000254800780B28E9DB9DF809009DF80A10AE
:102A0000224908800846B0F9000042F2107188425D
:102A100004DD1E48008800B21C49088000240026FE
:102A200004E0022C01D001A8065D641C1548007862
:102A30008442F6DB9DF80700012806D0022808D062
:102A400003280AD0042812D110E00020FFF732FE3C
:102A50000DE00120FFF72EFE09E09DF806000B496E
:102A6000B1F90010FFF760FE01E004E000BF00BF15
:102A700000200EB070BD4FF0FF30FAE700BFF8E75E
:102A8000560000205400002055000020580000206F
:102A900070B588B005466878802870D0A878F92885
:102AA0006DD1E87860286AD12879182867D100208C
:102AB000384908600BE037480068285C3649354AD9
:102AC0001268885433480068401C32490860314815
:102AD00000680A28EFDBA520304908705A204870AA
:102AE0000F2088700020C870012048712A480078A3
:102AF000887129484078802841D027488078F92873
:102B00003DD12548C078602839D12348007918285C
:102B100035D121484079C8711F48807908721E4814
:102B2000C07948721C48007A88729FED1D0A02A97C
:102B300005A800F0C9FC9DED070A8DED010A9DF87E
:102B400004001649C8729DF8050008739DF8060038
:102B500048739DF8070088730024002607E0042CC2
:102B600003D00E48005D304486B2601CC4B20F2C06
:102B7000F5DB0A490E710F21084802F025FE0024FA
:102B800004E0002005490855601CC4B20F2CF8DB96
:102B900008B070BD5C000020EB020020DC020020C9
:102BA0004260E53B00BFFEE710B50B490B48FEF75E
:102BB000CFFF78B100210948FEF720FF08490748F8
:102BC000FEF795FF04490548FEF7ECFF0121034895
:102BD000FEF714FF10BD00000088001028600240BE
:102BE000400F001010B54FF0C0510548FEF763FFCD
:102BF00020B14FF0C0510248FEF779FF10BD000030
:102C00005860024010B574497448FEF7A1FF0028CF
:102C10007CD073497148FEF76AFF6F496F48FEF731
:102C2000C1FF704800786F49497840EA0120C0F33D
:102C30000A006D4908806B484078C010694989785E
:102C400040EA4110C0F30A0067494880654880782F
:102C500080116449C97840EA81006249097940EAF3
:102C60008120C0F30A00604988805E4800794010E6
:102C70005C49497940EAC110C0F30A005A49C8804A
:102C80005848407900118008088156484079C0F3BF
:102C9000011048810846B0F90600A0F5806000EEFA
:102CA000100AB8EEC00A514880ED030A0846B0F990
:102CB0000400A0F5806000EE100AB8EEC00A4B4890
:102CC00080ED000A0846B0F90200A0F5806000EE31
:102CD000100AB8EEC00A454880ED010A0846B0F96E
:102CE0000000A0F5806000EE100AB8EEC00A3F4870
:102CF00080ED020A90ED030ADFED3D0AB4EEE00A32
:102D0000F1EE10FA40DC90ED030A00E04DE0DFED5B
:102D1000390AB4EEE00AF1EE10FA35D390ED020A6A
:102D2000DFED330AB4EEE00AF1EE10FA2CDC90EDA0
:102D3000020ADFED300AB4EEE00AF1EE10FA23D316
:102D400090ED010ADFED2A0AB4EEE00AF1EE10FA86
:102D50001ADC90ED010ADFED270AB4EEE00AF1EE8D
:102D600010FA11D390ED000ADFED210AB4EEE00A6B
:102D7000F1EE10FA08DC90ED000ADFED1E0AB4EE69
:102D8000E00AF1EE10FA10D29FED1B0A174880ED11
:102D9000030A9FED190A80ED020A9FED170A80EDE4
:102DA000010A9FED150A80ED000A104890ED030A14
:102DB000BDEEC00A10EE100A404200B20F49088072
:102DC0000A4890ED030ABDEEC00A10EE100A00B2E8
:102DD0000B49088010BD0000008800208860024078
:102DE000000800200A010020EC000020F80200206A
:102DF00000002544000025C4000000006C000020F5
:102E00006E00002010B50D490D48FEF7A1FE98B1E7
:102E100000210B48FEF7F2FD0A48FFF7A3FD044628
:102E200009490748FEF763FE04490548FEF7BAFE64
:102E300001210348FEF7E2FD10BD000000880020DC
:102E400088640240C0020020400F002010B54FF0FF
:102E500020510548FEF72FFE20B14FF020510248C7
:102E6000FEF745FE10BD0000B8640240704770B523
:102E700004460D4600212046FEF7C0FD00BF204657
:102E8000FEF709FE0028FAD129462046FEF7D7FDB5
:102E900001212046FEF7B2FD70BD10B50A2002F0F8
:102EA000D6FB0120FEF786FB28B10120FFF702FCCC
:102EB0000120FEF790FB10BD10B5142002F0C7FBF7
:102EC0000420FEF777FB10B10420FEF784FB10BD51
:102ED00010B5142002F0BBFB0820FEF76BFB70B1AD
:102EE00007480088401E064908800846008801B24D
:102EF00004480068FFF718FC0820FEF76CFB10BDC3
:102F0000740000207000002010B50A2002F09FFB22
:102F10001020FEF74FFB10B11020FEF75CFB10BD38
:102F200000BFFEE710B5044600F0E8F824B18021A8
:102F30000B48FEF743FC03E080210948FEF740FC04
:102F400040210748FEF73AFC012000F02FF840210D
:102F50000348FEF735FC012000F028F810BD000002
:102F6000000402401CB501210220FEF771F9C020C7
:102F7000009001208DF804008DF8060003208DF8E4
:102F8000050069460848FEF79DFB032000900020DD
:102F90008DF804008DF8060002208DF805006946C2
:102FA0000148FEF78FFB1CBD0004024010B5002154
:102FB00006E0062200BF131EA2F10102FBD1491C4C
:102FC0008142F6D310BD00002DE9F04106460F46C0
:102FD0001446984600F0A4F8304600F0A9F900F035
:102FE000D7F8FF2805D11DA001F0DCF9FF20BDE8CE
:102FF000F081384600F09CF900F0CAF8FF2804D1AF
:1030000019A001F0CFF9FF20F1E700F089F8711C59
:10301000C8B200F08DF900F0BBF8FF2804D115A06C
:1030200001F0C0F9FF20E2E7002508E000F028F8F1
:1030300020700020FFF776FF641C681CC5B2A8F161
:103040000100A842F2DC00F01BF820700120FFF71D
:1030500069FF00F081F80020C9E700006572726F17
:10306000722032460D0A00006572726F722032477C
:103070000D0A00006572726F722032480D0A00005E
:1030800070B5002400F026F8002518E04021104813
:10309000FEF796FB0120FFF789FF40210C48FEF761
:1030A0008DFB6006040E80210948FEF76DFB08B118
:1030B000601CC4B20120FFF779FF681CC5B2082D5F
:1030C000E4DB40210248FEF77BFB204670BD000098
:1030D000000402401CB58020009000208DF8040000
:1030E0008DF806008DF8070002208DF8050069466E
:1030F0000148FEF7E7FA1CBD000402401CB5802021
:10310000009001208DF804008DF8060003208DF852
:10311000050069460148FEF7D5FA1CBD00040240CF
:1031200010B5FFF7EBFF80210A48FEF747FB40216F
:103130000848FEF743FB0120FFF738FF80210548D0
:10314000FEF73EFB0120FFF731FF40210148FEF76B
:1031500037FB10BD0004024010B5FFF7CFFF402140
:103160000A48FEF72DFB80210848FEF729FB0120C5
:10317000FFF71CFF40210548FEF720FB8021034894
:10318000FEF71CFB0120FFF711FF10BD00040240F9
:1031900010B54FF47A7480211348FEF70FFBFFF748
:1031A00099FF0120FFF702FF40210F48FEF706FBC1
:1031B0000120FFF7FBFE0AE0601E80B2041E06D06D
:1031C000FFF7CAFF09A001F0EDF8FF2010BD802134
:1031D0000548FEF7D9FA0028EED140210248FEF753
:1031E000EFFA0020F2E70000000402406572726FFF
:1031F000722032410D0A0000F8B506460F4614460B
:103200001D4601236A4639463046FFF7DDFE2DB1E3
:103210000120A0409DF80010084305E00120A040D7
:103220009DF8001021EA0000C0B200909DF8002037
:103230003946304600F03AF8C0B2F8BD2DE9F843FF
:103240000746884614461D46089E01236A464146A5
:103250003846FFF7B9FE30BB601CFF2101FA00F0D1
:10326000C4F108012944491EFF220A41104300F01D
:10327000FF09C5F1080006FA00F0C6B2C4F1070064
:1032800006419DF8000000EA090000909DF800004A
:10329000304300909DF800204146384600F006F883
:1032A000C0B2BDE8F8830020FBE7000070B5064619
:1032B0000C46154600BFFFF733FF304600F038F8E4
:1032C000FFF766FFFF2804D110A001F06BF8FF2084
:1032D00070BD204600F02CF8FFF75AFFFF2804D1FC
:1032E0000DA001F05FF8FF20F2E7284600F020F87B
:1032F000FFF74EFFFF2804D10AA001F053F8FF208A
:10330000E6E7FFF729FF0020E2E700006572726F31
:10331000722032420D0A00006572726F72203243D1
:103320000D0A00006572726F722032440D0A0000AF
:1033300070B50446FFF7E2FE40211348FEF740FA5D
:1033400000251DE004F0800020B180210E48FEF72A
:1033500035FA03E080210C48FEF732FA6006040ECD
:103360000120FFF723FE40210748FEF727FA01203E
:10337000FFF71CFE40210448FEF722FA681CC5B284
:10338000082DDFDB70BD0000000402403EB504469E
:10339000684600F0BDFBBDF9000000EE100AB8EE73
:1033A000C00A414880ED000ABDF9020000EE100A93
:1033B000B8EEC00A3C4880ED010ABDF9040000EEF9
:1033C000100AB8EEC00A384880ED020ABDF90600BE
:1033D00000EE100AB8EEC00ADFED340A20EE200A33
:1033E000DFED330A80EE201A2F4880ED031ABDF975
:1033F000080000EE100AB8EEC00ADFED2C0A20EE3D
:10340000200ADFED2B0A80EE201A274880ED041AEF
:10341000BDF90A0000EE100AB8EEC00ADFED230A7B
:1034200020EE200ADFED220A80EE201A1E4880EDF1
:10343000051AB7EE000A80ED060A9FED1E0A80ED20
:10344000070A9FED1C0A80ED080A90ED023AF0EEA3
:10345000432A90ED013AB0EE432A90ED003AF0EEA7
:10346000431A90ED053AB0EE431A90ED043AF0EEAF
:10347000430A90ED033AB0EE430A00F0D7FB0E4842
:1034800090ED000A84ED000A0C4890ED000A84EDEE
:10349000010A0B4890ED000A84ED020A094890EDFC
:1034A000000A84ED030A3EBD0803002035FA8E3C75
:1034B0003333034200000000880000208C0000200D
:1034C000900000209400002030B52DED0E8B85B0CB
:1034D00004460D46B0EE408AB0EE000AC8EE000A7F
:1034E000A048C0ED000AB7EE000AC0EE080A9E48E8
:1034F000C0ED000A01A8FFF749FF9DED030AF8EEB1
:10350000000A20EE200ADDED030A20EE200ADDEDA0
:10351000040AB0EE001A60EE810A9DED041A00EE76
:10352000C10AF7EE000A30EE200A10EE101A084623
:10353000FEF7F1FE41EC1D0B9DED020AF0EE000AD4
:1035400020EE200ADDED030A20EE200ADDED010A5F
:10355000B0EE001A60EE810A9DED041A00EE810AB9
:1035600010EE101A0846FEF7D6FE41EC1E0BB0EE28
:103570004D1AF0EE6D1AB0EE4E0AF0EE6E0A01F042
:1035800057FAB0EE40CAF0EE60CA51EC1C0B81F065
:10359000004141EC1B0B9FED750B53EC102BFEF71C
:1035A000D9FD41EC1A0B9FED730B53EC102BFEF77A
:1035B00043FE41EC190BFEF7C1FEA0609DED020A2F
:1035C000F8EE000A20EE200ADDED040A20EE200AC3
:1035D000DDED010AB0EE001A60EE810A9DED031ADE
:1035E00000EE810A10EE101A0846FEF794FE41EC38
:1035F0001D0BB0EE4D0AF0EE6D0A00F0FDFEB0EED0
:1036000040CAF0EE60CA51EC1C0B81F0004141EC65
:103610001B0B9FED560B53EC102BFEF79BFD41EC63
:103620001A0B9FED540B53EC102BFEF705FE41ECEB
:10363000190BFEF783FE20609DED020AF8EE000AEA
:1036400020EE200ADDED020A20EE200ADDED030A5D
:10365000B0EE001A60EE810A9DED031A00EEC10A79
:10366000F7EE000A30EE200A10EE101A0846FEF7B8
:1036700052FE41EC1C0B9DED030AF0EE000A20EE19
:10368000200ADDED040A20EE200ADDED010AB0EE8D
:10369000001A60EE810A9DED021A00EE810A10EE1A
:1036A000101A0846FEF737FE41EC1D0BB0EE4C1A1F
:1036B000F0EE6C1AB0EE4D0AF0EE6D0A01F0B8F9BA
:1036C000B0EE40BAF0EE60BA9FED280B53EC102B31
:1036D00051EC1B0BFEF73EFD41EC1A0B9FED250B49
:1036E00053EC102BFEF7A8FD41EC190BFEF726FE5C
:1036F0006060224890ED030ADFED210A20EE200AE7
:10370000DFED200A80EE201A85ED011A90ED040A03
:10371000DFED1B0A20EE200ADFED1A0A80EE201AE8
:1037200085ED001A90ED050ADFED150A20EE200A5E
:10373000DFED140A80EE201A85ED021A94ED020ADC
:10374000B5EEC00AF1EE10FA07D294ED020ADFEDF1
:103750000E0A30EE200A84ED020A05B0BDEC0E8B95
:1037600030BD0000A0000020A400002000000000E8
:103770000080664000000060FB2109400803002033
:1037800000003443DB0F49400000B44310B50A2069
:1037900001F05DFF00F03AF80A2001F058FF0A201E
:1037A00001F055FFB7EE000A104880ED000A9FEDCA
:1037B000100A104880ED000A9FED0D0A0E4880EDBA
:1037C000000A9FED0B0A0D4880ED000A9FED080AE4
:1037D0000B4880ED000A9FED060A0A4880ED000ABA
:1037E0009FED030A084880ED000A10BD8800002004
:1037F000000000008C0000209000002094000020B9
:103800007C00002080000020840000203EB50120C4
:1038100000F044F9022000F055F9002000F048F9CA
:10382000002000F06BF9002000F05FF9012000F0AB
:1038300053F9002307223721D020FFF7DDFC0023B6
:1038400006223721D020FFF7D7FC0123052237219C
:10385000D020FFF7D1FC012304223721D020FFF72D
:10386000CBFC012300223821D020FFF7C5FC002427
:1038700007E0322001F0F9FE684600F049F9601CCB
:10388000C4B20A2CF5DB3EBDF0B5DDE90545804E3E
:103890003668804FDFF800C2BCF900C037F91C70F1
:1038A000F61B7B4F3E603E4677687A4E1636DFF851
:1038B000E8C1BCF900C036F91C60BE1B744F7E60C5
:1038C0003E46B768734E2C36DFF8CCC1BCF900C059
:1038D00036F91C60BE1B6E4FBE603E46F7686D4EEB
:1038E0004236DFF8B4C1BCF900C036F91C60BE1B1B
:1038F000674FFE603E463769664E5836DFF898C11E
:10390000BCF900C036F91C60BE1B614F3E613E46EB
:103910007769604E6E36DFF880C1BCF900C036F9B9
:103920001C60BE1B5A4F7E615A4E5B4FB7F9007048
:1039300026F817001636584FB7F9007026F81710FA
:103940001636554FB7F9007026F817201636524F25
:10395000B7F9007026F8173016364F4FB7F90070D8
:1039600026F8174016364C4FB7F9007026F8175056
:10397000474E3768474EDFF820C1BCF900C036F922
:103980001C603E44424F3E603E467768414E1636CC
:10399000DFF804C1BCF900C036F91C603E443C4F5E
:1039A0007E603E46B7683B4E2C36DFF8ECC0BCF973
:1039B00000C036F91C603E44354FBE603E46F76895
:1039C000344E4236DFF8D0C0BCF900C036F91C6076
:1039D0003E442F4FFE603E4637692E4E5836DFF884
:1039E000B8C0BCF900C036F91C603E44284F3E61A7
:1039F0003E467769274E6E36DFF89CC0BCF900C0A2
:103A000036F91C603E44224F7E61234E3688761C78
:103A100036B2214F3E803E46B6F900600A2E01DBE9
:103A200000263E801A4E36680A2796FBF7F636B215
:103A3000184FBE82164E76680A2796FBF7F637B205
:103A4000144E7785124EB6680A2796FBF7F637B202
:103A5000104EA6F840700E4EF6680A2796FBF7F651
:103A600037B20C4EA6F85670094E36690A2796FBF7
:103A7000F7F637B2074EA6F86C70054E76690A273E
:103A800096FBF7F637B2034EA6F88270F0BD000041
:103A9000C00300203A030020C000002038B50446CF
:103AA000032302226B21D0200094FFF7C7FB38BD0F
:103AB00038B50446022304221C21D0200094FFF7CD
:103AC000BDFB38BD38B50446022304221B21D0209B
:103AD0000094FFF7B3FB38BD10B50446234601221E
:103AE0003721D020FFF788FB10BD10B504462346D0
:103AF00005226A21D020FFF77FFB10BD10B50446D8
:103B0000234606226B21D020FFF776FB10BD000074
:103B10001CB504460E233A4A3B21D020FFF754FA45
:103B2000374840783649097840EA012000B23549E3
:103B300008803348C0783249897840EA012000B2D1
:103B4000314908802E4840792D49097940EA012001
:103B500000B22E4908802A48407A2949097A40EA69
:103B6000012000B22A4908802548C07A2449897A70
:103B700040EA012000B2274908802148407B2049C3
:103B8000097B40EA012000B2234908800846B0F9C9
:103B900000002049B1F90010CDE900101C48B0F92F
:103BA00000301A48B0F900201748B0F90010154845
:103BB000B0F90000FFF768FE1848808A2080174897
:103BC000408D60801548B0F84000A0801348B0F8E0
:103BD000560013490988401A00B2E0800F48B0F837
:103BE0006C0010490988401A00B220810B48B0F8D7
:103BF00082000D490988401A00B260811CBD000096
:103C00002C030020C8000020CA000020CC000020A7
:103C1000CE000020D0000020D20000203A03002077
:103C2000C2000020C4000020C600002000B52DED19
:103C3000068BB0EE403AF0EE603AB0EE414AF0EE5C
:103C4000615AF0EE424AB0EE625AF5EEC05AF1EE19
:103C500010FA09D1F5EEC04AF1EE10FA04D1B5EE32
:103C6000C05AF1EE10FA7CD065EEA50A44EEA40A23
:103C700045EE050AB0EE600A01F022FDF0EE402AA2
:103C800025EEA20AF0EE405A24EEA20AF0EE404AD7
:103C900025EE220AB0EE405ABE4890ED000ABE481A
:103CA000D0ED000A20EE200ABC48D0ED000ABC4846
:103CB00090ED001AF0EE409A40EEC19AB74890EDB0
:103CC000000AB448D0ED000A20EE200AB448D0ED36
:103CD000000AB14890ED001AF0EE407A40EE817A89
:103CE000AE48D0ED000A90ED001AB6EE000A10EED4
:103CF000810AA948D0ED000A90ED001AB0EE408A82
:103D000000EE818A24EE880AF0EE408A45EE678A4A
:103D100025EE290AB0EE409A05EEC89A25EEA70ACC
:103D2000B0EE40AA04EEE9AA9E4890ED000AB5EE76
:103D3000C00AF1EE10FA50DD9B4890ED000AB7EE94
:103D4000001AC1EE000A974890ED000A20EE281AEA
:103D5000964890ED000A01EE200A80ED000A924894
:103D600000E062E090ED000AB7EE001AC1EE000A32
:103D70008C4890ED000A20EE091A8D4890ED000A5B
:103D800001EE200A80ED000A874890ED000AB7EEA8
:103D9000001AC1EE000A834890ED000A20EE0A1ACC
:103DA000844890ED000A01EE200A80ED000A7F4869
:103DB00090ED000A33EE000AB0EE403A7C4890EDF8
:103DC000000A33EE800AF0EE403A7A4890ED000A9D
:103DD00034EE000AB0EE404A0EE09FED770A7348D9
:103DE00080ED000A9FED740A714880ED000A9FED96
:103DF000720A704880ED000A7048D0ED000AB0EEFB
:103E0000430A00EEA80AB0EE403AD0ED000AB0EE48
:103E1000630A00EE890AF0EE403AD0ED000AB0EEF7
:103E2000440A00EE8A0AB0EE404A5F48D0ED000A2C
:103E3000B7EE001A81EE200AF6EE000A20EE200A04
:103E400020EE030AB0EE403AD0ED000AB7EE001AB9
:103E500081EE200AF6EE000A20EE200A20EE230A68
:103E6000F0EE403AD0ED000AB7EE001A81EE200ADB
:103E7000F6EE000A20EE200A20EE040AB0EE404AD8
:103E8000464890ED006A434890ED007A4448D0EDF2
:103E9000006AB1EE470A20EE030A06EEE30A3E4846
:103EA000D0ED000A00EEC40A3C48D0ED000A30EE26
:103EB000200A80ED000A26EE030A06EE840A364840
:103EC000D0ED000A00EEE30A3248D0ED000A30EEF1
:103ED000200A80ED000A26EE230A07EE440A2E4847
:103EE000D0ED000A00EE830A2D48D0ED000A30EE36
:103EF000200A80ED000A26EE040A07EE230A06EEE9
:103F0000C30A2548D0ED000A30EE200A80ED000AF1
:103F10002248D0ED000A90ED001A60EE810A1D489B
:103F200090ED001AD0ED001A41EE210A1C4890EDE8
:103F3000001AD0ED001A41EE210A174890ED001A40
:103F4000D0ED001A41EE210AB0EE600A01F0B8FB94
:103F5000F0EE402A114890ED000A20EE220A80ED92
:103F6000000A0C4890ED000A20EE220A80ED000ABB
:103F70000B4890ED000A20EE220A80ED000A064868
:103F800090ED000A20EE220A80ED000ABDEC068BBF
:103F900000BD00008C00002094000020880000205C
:103FA00090000020B0000020A4000020B4000020F9
:103FB000B8000020BC00002000000000AC00002081
:103FC00000BFFEE7704700002DE9F04105460E46B0
:103FD00000240027074F00BF04E0285D07F8010B0D
:103FE000601C84B2B442F8DB31460348FEF73FFF61
:103FF000BDE8F081B6020020586002400CB50020F8
:10400000019000903448006840F4803032490860E4
:1040100000BF3148006800F4003000900198401C57
:104020000190009818B90198B0F5A06FF1D12A4815
:10403000006800F4003010B10120009001E0002081
:1040400000900098012846D123484030006840F095
:1040500080502149403108602048006840F4804089
:104060001E4908601C48083000681B490831086078
:104070000846006840F4004008600846006840F4C4
:10408000A05008601648091F0860081F006840F02B
:104090008070091F086000BF0F48006800F00070C2
:1040A0000028F9D040F205600E4908600A4808303F
:1040B000006820F0030008490831086008460068DD
:1040C00040F00200086000BF03480830006800F0BC
:1040D0000C000828F8D10CBD0038024000700040E8
:1040E00019544007003C024010B51548006840F4E0
:1040F0007000134908601348006840F0010011493E
:10410000086000200F49083108600E4800680E4919
:1041100008400C4908600D48091D0860081F006828
:1041200020F48020091F0860002006490C31086037
:10413000FFF764FF4FF0006001498039086010BD4F
:1041400088ED00E000380240FFFFF6FE103000244A
:1041500010B501218807FCF708FE38B10121880756
:10416000FCF714FE01218807FCF7FCFD10BD0000E0
:104170001FB501210220FDF79EF84720ADF804008D
:104180000020ADF80600ADF80C0042F2107002906D
:1041900001A90D48FCF731F91D208DF8000003201E
:1041A0008DF8010000208DF8020001208DF8030039
:1041B0006846FCF70AF8012211460348FCF7BEFDE9
:1041C00000F04EF81FBD00000004004010B50121B2
:1041D0001E48FCF7CAFD002837D01D48006801289A
:1041E00009D102201A4908601A48B0F900100120CC
:1041F000FEF79AFA21E016480068022809D1032048
:10420000134908601448B0F900100220FEF78CFA38
:1042100013E00F480068032805D104200C4908600A
:10422000FEF786FB09E00A480068042805D1012052
:10423000074908600948FEF72BFC01210348FCF7F9
:10424000A5FD01210148FCF78DFD10BD00040040D3
:10425000780000206C0000206E000020AC020020DE
:1042600010B5002003490860012102482438FCF7FA
:104270004DF910BD2404004000B597B0012142481B
:10428000FCF7E6FF01214804FDF715F8072203219A
:104290003E48FDF7A2FA0820159002208DF858003C
:1042A00000208DF85A0003208DF8590000208DF869
:1042B0005B0015A93548FDF705FA3548FDF796FC72
:1042C000344811900020ADF84800ADF84A004FF492
:1042D0008060ADF84C000420ADF84E000020ADF831
:1042E000500011A92A48FDF7CFFC01212848FDF70D
:1042F00053FD012240212648FDF7FBFD2648FDF72E
:10430000A1FA02A8FDF769FB4FF000600290204877
:10431000001D039021480490002005901220069073
:10432000002007904FF480600890002009900A90C8
:104330004FF480700B9040020C9000200D900E9076
:104340000F90109002A91448FDF71EFB01221021C6
:104350001148FDF7E0FB01210F48FDF74FFB10204E
:104360008DF8040000208DF8050001208DF806006E
:104370008DF8070001A8FBF728FF01210648FDF78B
:104380003DFB17B000BD000001002000000002400E
:1043900000440040A0860100886002400A0100201D
:1043A00000BFFEE70FB4054B10B503A9044A0298FD
:1043B00000F0AEFD10BC5DF814FB00009D56000837
:1043C000E400002003B401984100009850EAC120A5
:1043D00018BF04204A0D18BF40F0010040F2FF72E0
:1043E000B2EB515F08BF40F00200012808BF052072
:1043F00002B070470000000070B5C1482DED020BFF
:104400002DED0E8B82B0119D25F000449FEDBEDB9B
:104410009FEDBFEB84423EDBA4F140511098A1F127
:104420007F6108430FD0BC48844202DC28D1109839
:1044300030B39DED100B02B0BDEC0E8B02B0BDE8A9
:10444000704000F069BC9DED100B53EC1D2B51EC3E
:10445000100BFDF77FFE9DED100B41EC180B53EC9C
:104460001E2B51EC100BFDF775FE53EC182BFDF7CE
:10447000CAFD41EC100B02B0BDEC0E8B02B070BD5A
:10448000012000F08DFC02B0BDEC0E8B02B0BDE847
:10449000704000F055BCA1489FEDA18B844256DAD4
:1044A0009DED100BB4F1795F0ADA51EC100BFFF7B8
:1044B00089FF042808BF00F053FC9DED100BDAE7DC
:1044C00053EC102B51EC100BFDF744FE41EC190B93
:1044D00095480621B0EE490AF0EE690A784400F0EA
:1044E0009FFB53EC192B51EC100BFDF733FE41EC05
:1044F0001A0B8E48B0EE490AF0EE690A042178449E
:1045000000F08EFB53EC192B51EC100BFDF722FE43
:1045100053EC182BFDF777FD41EC100B51EC1A0B07
:1045200053EC102BFDF788FECDE900019DED000B4B
:1045300053EC102B9DED100B51EC100BFDF70AFE08
:104540009DED101B53EC112BFDF75DFDD2E09DEDB1
:10455000100B51EC100B01F095F853EC182BFDF7F4
:10456000F6FD9FED730BCDE9000153EC102B9DED93
:10457000000B51EC100BFDF7EDFD41EC190B6E48F3
:104580000621B0EE490AF0EE690A784400F048FBD3
:1045900053EC192B51EC100BFDF7DCFD41EC1B0B20
:1045A0006648B0EE490AF0EE690A0421784400F04A
:1045B00037FB53EC192B51EC100BFDF7CBFD53ECF3
:1045C000182BFDF720FD41EC1C0B51EC190B01F0F1
:1045D000AEF841EC180B5A489FED5BABA04222DCD1
:1045E00053EC1C2B51EC1B0BFDF726FECDE9000113
:1045F0009DED000B51EC180B53EC102BFDF7AAFDB1
:1046000053EC182BFDF7FFFC53EC1A2BFDF7A2FD22
:1046100053EC1D2BFDF798FD53EC1E2BFDF797FD7A
:1046200041EC100B5FE08DED008B002000909DEDC4
:10463000000B51EC180B53EC102BFDF7E4FC9DED37
:10464000000B41EC1E0B53EC102B51EC100BFDF743
:1046500081FD53EC192BFDF77AFD53EC1E2BFDF772
:10466000EBFD41EC190B53EC1C2B51EC1B0BFDF734
:10467000E3FD41EC1B0B53EC1A2B51EC190BFDF72E
:1046800069FD53EC1D2BFDF762FD41EC190B53EC5A
:104690001A2B51EC180BFDF75DFD53EC1B2BFDF7AE
:1046A00059FD53EC192BFDF74FFD9DED000B41EC2F
:1046B000180B53EC1A2B51EC100BFDF74BFD9FED33
:1046C000249B53EC192BFDF742FD41EC100B51ECF0
:1046D000180B53EC102BFDF737FD53EC192BFDF79E
:1046E00036FD41EC100B002D3FF7C5AE51EC100B21
:1046F00081F0004141EC100BBDE60000000000001D
:104700000000F03F00000000075C143326A6913C37
:10471000182D4454FB21F93F0000F07F0000E03FDA
:10472000000000000000F03F201300002E130000E6
:10473000000000000000E03F721200008012000044
:104740003333EF3F00000000000000000000004095
:10475000182D4454FB21E93F70B59B482DED020B09
:104760002DED068B079D25F00044A04218DC9748EC
:10477000844202DC0AD1069840B19DED060BBDECE7
:10478000068B02B0BDE8704000F0C6BA002DCCBF69
:104790009FED8F0B9FED900BBDEC068B02B070BDB3
:1047A0008F48A04215DD8F48A042D8BF4FF0FF349C
:1047B00058DD9DED060B51EC100BFFF703FE0428AE
:1047C00008BF00F0CDFA9DED060BBDEC068B02B0E4
:1047D00070BD9DED060B51EC100B00F053FFCDE9C1
:1047E000060181489FED828BA0423CDD8248A042B9
:1047F0001FDD00249FED82AB9DED060B53EC1A2BC1
:1048000051EC100BFDF7FFFB9DED060B41EC190B76
:1048100053EC1A2B51EC100BFDF79CFC53EC182BAE
:10482000FDF792FC53EC192BFDF706FDCDE90601CF
:1048300049E09DED060B012453EC182B51EC100BB5
:10484000FDF7E1FB9DED060B41EC190B53EC182B2A
:1048500051EC100BFDF778FC53EC192BFDF7ECFC39
:10486000CDE906012FE06848A0421FDD02249FED3C
:10487000689B9DED060B53EC192B51EC100BFDF7CB
:1048800069FC53EC182BFDF7BEFB9DED060B41ECCC
:10489000180B53EC192B51EC100BFDF755FC53EC96
:1048A000182BFDF7C9FCCDE906010CE09DED060BC8
:1048B000032453EC102B9FED580B51EC100BFDF71C
:1048C000BBFCCDE906019DED060B53EC102B51EC22
:1048D000100BFDF73FFC41EC180B53EC182BFDF7C8
:1048E00039FC41EC190B4E480621B0EE490AF0EEB6
:1048F000690A784400F094F953EC182B51EC100B32
:10490000FDF728FC41EC180B4648B0EE490AF0EEE2
:10491000690A0521784400F083F953EC192B51EC16
:10492000100BFDF717FC41EC100B51EC180B53EC7E
:10493000102B002C0EDAFDF766FB9DED061B53ECE9
:10494000112BFDF707FC9DED061B53EC112BFDF71A
:10495000FEFB35E0FDF757FB9DED061B53EC112BDD
:10496000FDF7F8FB41EC100B2F48784400EBC40036
:1049700090ED001B51EC100B53EC112BFDF7E4FBF9
:104980009DED061B53EC112BFDF7DEFB41EC100BEC
:104990002648784400EBC40090ED001B51EC100B4E
:1049A00053EC112BFDF7D3FB41EC100B002DA2BFF4
:1049B000BDEC068B02B070BD51EC100B81F00041D4
:1049C00041EC100B01E70000000010440000F07FF4
:1049D000182D4454FB21F93F182D4454FB21F9BFF5
:1049E0000000DC3F0000203E0000F33F000000001C
:1049F000000000000000F03F0000E63F0000000063
:104A000000000000000000400080034000000000A3
:104A1000000000000000F83F000000000000F0BFB0
:104A2000C20F0000780F0000020F0000BA0E000055
:104A300070B56B4E2DED040B2DED028B82B0DDF8C1
:104A40001CC0DDE905235C422CF000411C4341EA17
:104A5000D474049D22F00040B44205D86C422C432B
:104A600040EAD474B4420BD99DED061B9DED040BB6
:104A700002B0BDEC028B04B0BDE8704000F056B946
:104A8000ACF14054A4F17F641C430BD0022404EA2F
:104A9000AC7444EAD27405439FED538B9FED542BC5
:104AA00007D015E09DED040B51EC100B00F0C7FD95
:104AB00042E0002C11BF012C9DED040B02B0BDECB7
:104AC000028B04BF04B070BD022C38D0032C3BD045
:104AD0000B439FED491B9FED4A0B0AD0B14218D101
:104AE000B04209D121F0804120F08040079105902B
:104AF0000FE0002A15DA10E0434B7B44002C08BF7E
:104B000093ED000B0DD0012C10D0022C17D0032CEC
:104B10001AD0B0421DD1002A03DAB0EE410AF0EEFD
:104B2000610A02B0BDEC028B04B070BD93ED000BC6
:104B300051EC100B81F0004141EC100BF1E7B0EEAD
:104B4000480AF0EE680AECE7B0EE420AF0EE620ABC
:104B5000E7E7401A00153C28C8BF8DED000B19DCB3
:104B6000BCF1000FBEBF10F13C0F9FED290B8DED86
:104B7000000B0FDB9DED060B53EC102B9DED040B92
:104B800051EC100BFDF758FB00F07CFD00F057FDD9
:104B9000CDE90001002C08BF9DED000BC1D0012C18
:104BA00010D0022C9FED1C0B53EC102B9DED000B35
:104BB00051EC100B0DD0FDF7C7FA53EC182BFDF795
:104BC000C3FAB9E7019880F0004001909DED000B19
:104BD000A7E7FDF7B9FA53EC182BFDF7B8FAABE7E6
:104BE0000000F07F00000000182D4454FB21094014
:104BF000182D4454FB2109C0182D4454FB21F9BF42
:104C0000182D4454FB21F93FEA0D0000000000007C
:104C10000000000000000000075C143326A6A13C41
:104C200070B504462DED028B4D1E00EBC500B0EEB5
:104C3000408AF0EE608A90ED000B35F0060017D048
:104C400053EC182B51EC100BFDF784FA41EC100BD0
:104C50006D1E04EBC50090ED001B51EC100B53ECE6
:104C6000112BFDF7D0F941EC100B35F00600E7D120
:104C7000022D36D0042D1CD0062D1CBFBDEC028B9E
:104C800070BD53EC182B51EC100BFDF763FA94ED4B
:104C90000A1B53EC112BFDF7B6F953EC182BFDF75B
:104CA00059FA94ED081B53EC112BFDF7ACF941ECCC
:104CB000100B53EC182B51EC100BFDF74BFA94ED45
:104CC000061B53EC112BFDF79EF953EC182BFDF747
:104CD00041FA94ED040B53EC102BFDF794F941ECE1
:104CE000100B53EC182B51EC100BFDF733FA94ED2D
:104CF000021B53EC112BFDF786F953EC182BFDF733
:104D000029FA94ED001B53EC112BFDF77CF9BDEC57
:104D1000028B41EC100B70BD10B553EC102B51EC15
:104D2000100BFDF770F941EC100B10BD10B553ECF2
:104D3000112B51EC100BFDF766F941EC100B10BD77
:104D40009FED050B10B553EC102B51EC100BFDF73C
:104D500073FA41EC100B10BD0000000000000000D1
:104D60009FED050B10B553EC102B51EC100BFDF71C
:104D7000F1F941EC100B10BD000000000000001024
:104D800002E008C8121F08C1002AFAD17047704714
:104D9000002001E001C1121F002AFBD17047000072
:104DA0000149086070470000E80000202DE9FF5F1E
:104DB000DDE90220010DDDF838B0024318D044F6D9
:104DC0001050A1F2FF3141430D140F98012820D05B
:104DD000A5EB0B00401C5FEA000A4FF00004474EB1
:104DE000DFF81C91A046504616D5CAF1000728E00E
:104DF0000F98012443A2012808D0002100980F9B9E
:104E0000C0E90021C0E90243BDE8FF9F6FEA0B0142
:104E1000F4E7CBF10000DEE7074612E0F80707D021
:104E20002246334640464946FDF794F98046894676
:104E30002246334610461946FDF78CF904460E46C5
:104E40007F10002FEAD1DDE90201BAF1000F4246DE
:104E50004B4602DAFDF77EF901E0FDF7EDF9044675
:104E60000E460022284BFDF7EBFB03D84FF0FF3036
:104E7000014607E00022254B20463146FDF7C3F8E6
:104E8000FDF7C5FB102409E0002C0ADB0A220023F1
:104E9000FDF786FA019B30321A55641E50EA010272
:104EA000F2D1641C019AC4F1110314440F9A012A2F
:104EB00003D0012208430DD10AE0084304D00020AA
:104EC0004FF0110B0F9080E7A3EB0B056D1E0DE06B
:104ED0005B4504DD4FF0000205F1010504E003DA53
:104EE0004FF00002A5F10105002AECD000980F99BF
:104EF000C0E90231C0E9004586E700000000244017
:104F00000000F03F300000000000F0430000E03FF0
:104F10002DE9FF4F95B09B468946064600250FE2D6
:104F2000252877D100242746F84A0121059400E07E
:104F3000044316F8013F203B01FA03F01042F7D179
:104F400030782A2811D06FF02F033078A0F130028A
:104F5000092A16D8059A44F0020402EB820203EBF8
:104F600042021044761C0590EFE759F8042B059295
:104F7000002A03DA504244F40054059044F002043D
:104F8000761C30782E2816D116F8010F44F0040450
:104F90002A280DD06FF02F023078A0F13003092BB2
:104FA00009D807EB870302EB4303C718761CF3E726
:104FB00059F8047B761C30786C280FD006DC4C281E
:104FC00017D068280DD06A2814D104E0742810D0B6
:104FD0007A280FD10DE044F400140AE044F4801460
:104FE00001E044F440147278824202D104F5801446
:104FF000761C761C307866280BD013DC582877D0C6
:1050000009DC002875D04528F6D04628F4D047287A
:105010001AD19DE118E0632835D0642879D065283D
:1050200012D195E1702873D008DC6728F1D0692887
:105030006FD06E280DD06F2806D1B5E073282CD024
:10504000752875D0782874D05A46179990476D1CEA
:1050500075E1C4F30250022809D003280DD0D9F815
:10506000001004280DD00D6009F1040967E1D9F89A
:105070000010EA17C1E90052F6E7D9F800100D80D8
:10508000F2E70D70F0E719F8041B8DF8001000200E
:105090008DF80100EA46012003E059F804AB4FF017
:1050A000FF3061074FF0000102D40DE008F101016B
:1050B0008846B9420FDA8045F8DB1AF80810002953
:1050C000F4D108E008F1010188468142FADB1AF8C0
:1050D00008100029F6D105985B46A0EB0807214689
:1050E0003846179A00F094FA284400EB080507E0C8
:1050F0004DE029E10DE01AF8010B5A461799904747
:10510000B8F10108F7D25B4621463846179A13E1F9
:1051100042E00A220092C4F302524FF0000A022A2F
:1051200008D059F804CB032A4FEAEC710AD00DE0FD
:1051300029E02AE009F1070121F00702F2E802C1A3
:10514000914609E00FFA8CFC4FEAEC71042A03D176
:105150004FFA8CFC4FEAEC71002907DA0A4600216D
:10516000DCF1000C61EB02012D2202E0220504D5E6
:105170002B228DF80420012203E0E20701D0202237
:10518000F7E7904659E00A2102E010220DE01021D5
:105190004FF0000A00910BE010224FF0000A44F09B
:1051A00004040827009203E008224FF0000A00924E
:1051B000C4F30252022A05D059F804CB0021032A75
:1051C00008D009E009F1070121F00702F2E802C165
:1051D000914605E01FFA8CFC042A01D10CF0FF0C6B
:1051E0004FF00008220728D5702806D0009B83F0D6
:1051F000100353EA0A0305D00EE040228DF8042084
:10520000012208E05CEA010206D030228DF8042079
:105210008DF8050002229046009B83F0080353EAB4
:105220000A030AD15CEA010201D1620705D53022E6
:105230008DF804204FF001087F1E582804D034A0B8
:1052400003900EA802900DE036A0F9E753466046A1
:10525000009AFDF7A5F884460398825C0298401EE8
:10526000029002705CEA0100F0D1029806A9081AC7
:1052700000F1200A600702D524F4803400E0012701
:10528000574502DDA7EB0A0000E0002000EB0A0111
:10529000009005984144401A0590E00306D45B460F
:1052A0002146179A059800F0B3F90544002706E057
:1052B00001A85A46C05D179990476D1C7F1C474551
:1052C000F6DBE0030CD55B462146179A059800F003
:1052D0009FF9054404E030205A46179990476D1C09
:1052E0000099481E00900029F5DC08E00298029918
:1052F0005A460078491C0291179990476D1CBAF1E3
:105300000001AAF1010AF1DC65E1000009280100B1
:10531000303132333435363738396162636465662B
:1053200000000000303132333435363738394142ED
:10533000434445460000000000F058F90544761C3F
:10534000307800287FF4ECAD19B02846BDE8F08F26
:10535000620700D4062709F1070222F0070CFCE8D7
:105360000223E14603F000485FEA080C02D00FF286
:10537000702C0DE05FEA045C02D50FF2682C07E0A8
:105380005FEAC47C02D00FF2602C01E0AFF2700C37
:105390004FF0FF3823F00043CDF850C065280CD003
:1053A00006DC452809D046281DD047283DD13DE0E0
:1053B000662818D067287ED138E00021112F01DB44
:1053C000112000E0781CCDE9000106A90EA8FFF726
:1053D000EDFCDDE90F010E9A03910021009207F127
:1053E000010A04914DE04FF000400097CDE9011013
:1053F00006A90EA8FFF7DAFCDDE90F0203920E9B67
:1054000011990022DDF80CA00093049211B9791CC7
:1054100000EB010AB7EB0A0004D4C0F1FF3007F13A
:10542000010A0490AAEB0700019044E0012F00DA82
:1054300001270021112F01DD112000E03846CDE9C0
:10544000000106A90EA8FFF7B1FCDDE90F010E9AD5
:105450000391002104910092BA4621070CD40399CC
:10546000514500DA8A46BAF1010F05DD009AAAF12A
:105470000101515C302908D0B84202DA10F1040F62
:1054800006DA0121CDE9011015E0AAF10101E9E7F1
:10549000002805DC049901440491AAEB000102E014
:1054A000411C514500DD8A460499401A401C019078
:1054B0004FF000400290200704D40198504501DBD2
:1054C000CDF8048000208DF84F0002980DF14F07B1
:1054D000B0F1004F25D02B200E9002984FF002081B
:1054E00000280CDA404202902D200E9007E00A219D
:1054F0000298FCF73FFF3031029007F8011DB8F128
:105500000001A8F10108F2DC02980028EFD1791E11
:105510000E980870307800F0200040F0450007F841
:10552000020D12A8C01B00F107081498007800B102
:10553000012000EB0A01019801EBE071059841445C
:10554000401A401E0590E00306D45B462146179A98
:10555000059800F05DF805441498007818B15A4693
:10556000179990476D1CE00324D55B462146179A96
:10557000059800F04DF805441CE00498002807DB6E
:10558000DDE90301884203DD0098405C179901E0E2
:10559000179930205A469047049805F10105401CA0
:1055A00004900198401E019004D12E205A4617996C
:1055B00090476D1CBAF10001AAF1010ADDDC05E09B
:1055C00017F8010B5A46179990476D1CB8F1000166
:1055D000A8F10108F4DC5B462146179A0598ABE672
:1055E0002D0000002B000000200000002DE9F041FC
:1055F000044600251E461746880404D405E03946B3
:105600002020B0476D1C641EF9D52846BDE8F08106
:105610002DE9F041044600251E469046C80301D5F9
:10562000302700E02027880404D505E041463846AD
:10563000B0476D1C641EF9D52846BDE8F08110B551
:1056400041EC100BFFF788F851EC100B10BD10B5B2
:10565000002107E04AF2104200BF131EA2F101022E
:10566000FBD1491C8142F5D310BD10B5002106E0E5
:10567000282200BF131EA2F10102FBD1491C814266
:10568000F6D310BD82B0CDE9000121F000400190B9
:105690009DED000B02B051EC100B704770B5044645
:1056A0000D4600BF40210548FCF751FC0028F9D009
:1056B000E1B20248FCF79BFB204670BD00100140A0
:1056C000F0EE400AF6EE001A60EEA11AB0EE611A92
:1056D000B0EE600A10EE100A0749A1EB600000EE80
:1056E000100A21EE002AF7EE081A42EE401A61EE87
:1056F000801AB0EE610A7047DF59375FFEF7BCFDD4
:10570000FDF730FCFEF782F8FEF740F8FEF730FDBB
:105710000120FCF7CFFF0520FFF799FF0220FCF7DF
:10572000C9FF03E04FF4FA70FFF791FFFAE700B505
:105730002DED048B83B041EC190BFCF717FF41EC06
:10574000180B18EE100A18EE901A8DED008B002839
:1057500018BF0120084320F00040C0F17F6000F135
:10576000E040C00F14D019EE101A19EE900A8DED1A
:10577000009B002918BF0121084320F00040C0F120
:105780007F6000F1E040C00F04BF0120FFF708FB7D
:1057900051EC180B03B0BDEC048B00BD70B5044692
:1057A0000D4600212046FCF729F900BF2046FCF7F2
:1057B00072F90028FAD129462046FCF740F9012168
:1057C0002046FCF71BF970BD2DE9F04105460E4659
:1057D00000240027074F00BF04E0285D07F8010BF5
:1057E000601C84B2B442F8DB31460348FFF7D6FFB1
:1057F000BDE8F081CD020020B86402400000000046
:10580000555555555555C53F7D6FEB0312D6D4BF41
:105810005544880E55C1C93F3B8F68B52882A4BF47
:1058200088B20175E0EF493F09F7FD0DE13D023F08
:105830004B2D8A1C273A03C0C88A599CE52A004090
:1058400059018D1B6C06E6BF82922EB1C5B8B33FDD
:105850004FBB610567ACDD3F182D4454FB21E93F88
:105860009BF681D20B73EF3F182D4454FB21F93F77
:10587000E2652F227F2B7A3C075C143326A6813CFD
:10588000BDCBF07A8807703C075C143326A6913CA8
:10589000C4EB98999999C9BF711623FEC671BCBF14
:1058A0006D9A74AFF2B0B3BF9AFDDE522DDEADBF7C
:1058B0002F6C6A2C44B4A2BF0D5555555555D53F94
:1058C000FF8300922449C23F6E204CC5CD45B73FAF
:1058D000513DD0A0660DB13FEB0D76244B7BA93F27
:1058E00011DA22E33AAD903F000000000000000012
:1058F0001059000800000020EC000000804D000856
:10590000FC590008EC000020EC060000904D000857
:1059100001234060000F0000002D012340600006BD
:105920000000003602234060000F0000002C02231C
:105930004060000600000035000000000123FF6009
:105940000000000000000223FF60000000000000D3
:105950000140F96018000000004E0240F960180094
:105960000000004D000000000000000000000000EA
:105970000000000000000000110000000000000016
:1059800001000000320000000100000000000000E3
:105990000000000000000000000000000000000007
:1059A00000000000000000000000000000000000F7
:1059B0000000000000000000CDCCCC3D0000803F86
:1059C00000000000000000000000000000000000D7
:1059D0000000210021002100000000000000000064
:1059E00000000000000000000102030401020304A3
:0C59F0000607080900000000000000008D
:040000050800018965
:00000001FF
